:1000000000100020490500004105000041050000E6
:10001000F8B51148114A1AE055689368D4689D42B2
:1000200009D0002104E06E1877683668C0C3083133
:10003000A142F8D100E01B191469002103E000255A
:10004000002660C30831A142F9D1143201380028DA
:10005000E2D103F01DFEC04601000000383E000062
:1000600080B584B000AF021CFB1D1A70224A3B1CF5
:100070000E3312781A70214A3B1C0F3312781A7013
:100080001F4B1B68013BBB601AE01E4B1868BA6827
:10009000391C0E31131C5B009B181B1801331B7895
:1000A0000B70184B1868BA68391C0F31131C5B00B1
:1000B0009B181B1802331B780B70BB68013BBB609D
:1000C000BB68002B0ADB0F4B1968BA68131C5B0076
:1000D0009B185B5CFA1D12789A42D6D90A4B3A1CDF
:1000E0000E3212781A60094B3A1C0F3212781A60DD
:1000F000BD4604B080BDC046CCF1FF0FCDF1FF0F6F
:10010000103E0000EC0000201CFF0B4020FF0B40C5
:1001100080B500AF154A154B19688023DB020B43ED
:1001200013603020FFF79CFF114B124A1278D2B2B5
:100130001A60052003F0A0FC0F4B35221A600F4B0C
:1001400010221A600E4B10221A600E4A80231B06E2
:1001500013600D4A80231B061360044A8023DB02D0
:1001600013600A4B0A4A1A60BD4680BD00010B406D
:1001700028FF0B40FDF1FF0F2CFF0B40080202404F
:100180000C02024008010B4004010B400000024039
:10019000DB05008080B582B000AF72B6FB1C002288
:1001A0001A7024E0FB1C1A78131C5B009B185B0080
:1001B0001A1C3B4BD3187B607B681A78597809026C
:1001C0000A43997809040A43DB781B0613431A1C77
:1001D0007B6819795B791B020B439BB2101C191CBD
:1001E00003F05EFCFB1CFA1C127801321A70FB1C37
:1001F0001B78012BD6D92B4A2B4B101C191C03F052
:100200005FFC2A4AFF231B061360294B294A1A6008
:10021000294BE1221A60294B294A1A60294B4022B6
:100220001A60294AC0235B031360284B02221A601C
:10023000274B10221A60274B01221A60264B274AAF
:100240001A60274A99231B041360264A80231B0542
:100250001360254A99231B041360244A99231B0425
:100260001360234A80231B031360224A99231B0433
:100270001360214B204A1278D1B202220A43D2B233
:100280001A701D4B1C4A1278D1B206220A43D2B210
:100290001A70FFF73DFF03F053FCBD4602B080BD6E
:1002A000FC3D0000083E00000C3E00000000014044
:1002B0000C000140FFEE0000000004400800044074
:1002C0000600D90000010440080104400002044077
:1002D0000802044000030440080304408E0D00009F
:1002E00000500F4004500F4010500F4020500F405E
:1002F00024500F4030500F4000700F4000B5034BAA
:100300001A78002A01D10120187000BDF0000020E9
:1003100008B504480368002B03D0034B002B00D022
:10032000984708BDC80000200000000080B582B0DA
:1003300000AFBB1D02221A7062B600F007FA00205F
:1003400000F05AF9FB1C00221A707B1D00221A7063
:1003500011E07B1D7A1D127801321A707B1D1B780B
:10036000FF2B02D17B1D00221A7000F0C1FE031C7E
:100370001A1CFB1C1A70FB1C1B78002BE9D0BB1D40
:10038000BA1D1278013A1A70BB1D1B78002BD4D10C
:1003900001F01AF8031CDAB25A4B1A707B1D0022C6
:1003A0001A700CE07B1D1B78181C00F027FE021C45
:1003B000554B1A607B1D7A1D127801321A70514B11
:1003C0001B787A1D12789A42ECD3504A504B101C7D
:1003D000191C00F051FA031C1A1C3B1D1A704D4ADF
:1003E0003B1D1B78101C191C00F0AAFD3B1D1B783F
:1003F000181C00F0D1F9484A454B101C191C00F09C
:100400003BFA031C1A1C3B1D1A70444A3B1D1B7807
:10041000101C191C00F094FD3B1D1B78181C00F0EB
:10042000BBF93F4A3A4B101C191C00F025FA031C7B
:100430001A1C3B1D1A703B4A3B1D1B78101C191CD3
:1004400000F07EFD3B1D1B78181C00F0A5F9344A16
:10045000354B101C191C00F00FFA031C1A1C3B1D15
:100460001A70324A3B1D1B78101C191C00F068FDE5
:100470003B1D1B78181C00F08FF9294A2C4B101CCF
:10048000191C00F0F9F9031C1A1C3B1D1A703B1DC6
:100490001B78181C00F0A6FF021C264B1A603B1D9F
:1004A0001B78181C002100F0FFFE08E03B1D1B78A4
:1004B000181C00F089FB031C1A1CFB1D1A703B1D45
:1004C0001B78181C00F0BCFF031C002BEED03B1D5A
:1004D0001B78181C00F060F90C4A174B101C191CF3
:1004E00001F00AF80C4A154B101C191C01F0B0F869
:1004F000094B181C00F0C6FF002000F07DF800F04A
:100500003BF9FEE7190100200C010020183D000016
:10051000243D0000283D0000403D0000503D00000B
:10052000683D0000743D00008C3D0000903D0000DF
:10053000A83D00001C010020AC3D0000BC3D0000B7
:1005400080B500AFFEE7C046014B9D46014B184702
:10055000001000201100000080B582B000AF002321
:100560007B600FE079687B68032B04D87A680D4BB9
:100570009200D35800E00C4B0C4A89008B507B68EA
:1005800001337B607B682F2BECD9FFF703FE084B10
:1005900000221A608023DB0501221A60BD4602B0EA
:1005A00080BDC046000000004105000000000020A2
:1005B000C000002080B582B000AF021CFB1D1A7085
:1005C000002003F09BF90020002103F04BF903F019
:1005D00077F803F0E5F803F0B9F8BD4602B080BD46
:1005E00080B500AF012003F089F9002000F004F885
:1005F00003F078F8BD4680BD80B582B000AF021C24
:10060000FB1D1A70FB1D1B78002B06D0002003F089
:1006100075F9012003F04CF905E0012003F06EF9B3
:10062000002003F045F9BD4602B080BD80B582B020
:1006300000AF021CFB1D1A70FB1D1B78181C03F079
:100640009BF8BD4602B080BD80B584B000AF786035
:100650000023BB6012E07A68BB68D3181B78181CB3
:1006600003F08AF803F062F8031C002BFAD003F0C1
:100670004DF8031CFB60BB680133BB60BB68FF2BFC
:10068000E9D9BD4604B080BD90B585B000AF7860B3
:100690000A1CFB1C1A700023FB6012E0FF2003F011
:1006A0006BF803F043F8031C002BFAD07A68FB6860
:1006B000D41803F02BF8031CDBB22370FB68013362
:1006C000FB60FB1C1A78FB689A42E7D8BD4605B070
:1006D00090BDC04690B585B000AF78600023FB6048
:1006E00012E0FF2003F048F803F020F8031C002B71
:1006F000FAD07A68FB68D41803F008F8031CDBB260
:100700002370FB680133FB60FB68FF2BE9D9BD4612
:1007100005B090BD80B582B000AF02F0F7FF021CBB
:10072000FB1D1A70FB1D1B78181CBD4602B080BD56
:1007300080B582B000AF02F0F9FF021CFB1D1A70F9
:10074000FB1D1B78181CBD4602B080BD80B500AFF4
:10075000054B064A1A60064B064A1A600020FFF74E
:1007600029FFBD4680BDC046500100206001002029
:10077000200100208C02002080B500AF044BFF2236
:100780001A60044BFF221A60FFF72AFFBD4680BDA6
:10079000500100202001002080B584B000AF021C71
:1007A000FB1D1A703A1C0F3260235B421370FB1D55
:1007B0001B78012B46D8FB1D1B78264AD35C1A1CDC
:1007C0000F231340012B04D0FB1D1B78181C00F0D5
:1007D000E7FBFB1D1A78204B92000021D150FB1D36
:1007E0001A781E4B92000021D150FB1D1A781C4B29
:1007F00092000021D150FB1D1A781A4B9200002163
:10080000D150FB1D1A78184B92000021D150FB1DCE
:100810001B78164A0021D154FB1D1B78144A002175
:10082000D154FB1D1B780B4A0021D154FB1D1B78B2
:10083000104A0021D154FB1D1A783B1C0F330D497F
:100840008A5C1A703B1C0F331B78181CBD4604B021
:1008500080BDC04688020020280100204001002001
:1008600070020020340100206002002030010020CE
:100870004C0100208002002080B586B000AF786077
:1008800039603B1C163300221A703B1C17330022C0
:100890001A703B1C153300221A700EE03B1C1533F6
:1008A0001A78C44B9200D358002B0CD03B1C153344
:1008B0003A1C1532127801321A703B1C15331B7822
:1008C000012BEBD900E0C0463B1C15331B78012BF4
:1008D00000D967E13B1C15331B78B74A0021D1547E
:1008E00072E03B1C16331A783B68D3181B78722BC6
:1008F00014D13B1C15331B783A1C15321278AE49C3
:10090000895C01220A43D1B2AB4AD1543B1C173354
:100910003A1C1732127801321A704EE03B1C163323
:100920001A783B68D3181B78772B14D13B1C1533EE
:100930001B783A1C153212789F49895C02220A43BF
:10094000D1B29D4AD1543B1C17333A1C173212784E
:1009500001321A7031E03B1C16331A783B68D31809
:100960001B78612B14D13B1C15331B783A1C1532B4
:1009700012789149895C04220A43D1B28E4AD1543B
:100980003B1C17333A1C1732127801321A7014E0EC
:100990003B1C16331A783B68D3181B782B2B0CD1D1
:1009A0003B1C15331B783A1C153212788249895C3E
:1009B00008220A43D1B2804AD1543B1C16333A1C58
:1009C0001632127801321A703B1C16331A783B68C3
:1009D000D3181B78002B84D13B1C17331B78012BB9
:1009E0000BD03B1C15331B78734A0021D1543A1CA1
:1009F000173256235B42137003E03B1C173300226F
:100A00001A703B1C163300221A7012E03B1C16337E
:100A10001B783A1C163211787A688A1811783A1CB9
:100A20000832D1543B1C16333A1C1632127801326C
:100A30001A703B1C16331A787B68D3181B78002B6E
:100A4000E4D13B1C16331B783A1C08320021D154E8
:100A50003B1C0833181C02F01DFC031C1A1C3B1C19
:100A600017331A703B1C17331B78002B1DD13B1C0E
:100A7000163300221A7013E0504B1A683B1C1633D1
:100A80001B78D3183A1C16321278391C08318A5C4C
:100A90001A703B1C16333A1C1632127801321A7047
:100AA0003B1C16331B780B2BE6D93B1C17331B78EA
:100AB000002B71D13B1C15331A783B1C15331B7866
:100AC0003F49CB5CFD210B403D498B543B1C15330A
:100AD0001B78181C002101F045FC3B1C15331B78CA
:100AE000374AD35C1A1C02231340002B2AD03B1C2C
:100AF00015331B78304AD35C1A1C01231340DBB238
:100B0000002B04D03B1C153302221A704AE02B4BF9
:100B10001B683A1C15321278101C191C01F0FCFFDE
:100B2000031C1A1C3B1C15331A703B1C15331A7816
:100B30003B1C15331B782249CB5CFD210B4020491F
:100B40008B542FE03B1C15331B781B4AD35C1A1CBB
:100B500001231340002B24D13B1C15331B78164A6C
:100B6000D35C1A1C02231340002B07D03B1C153307
:100B70001B78181C002102F077F813E03B1C15339A
:100B80001A78104B9200D3583A1C15321278101C68
:100B9000191C00F089FB05E03B1C153302221A707A
:100BA00000E0C0463B1C15331B78181CBD4606B040
:100BB00080BDC046400100208802002020010020A6
:100BC000800200203401002080B584B000AF021CF8
:100BD000FB1D1A703B1C0F3300221A70FB1D1B7883
:100BE000012B00D9A9E0FB1D1A78574B9200D2586F
:100BF000564B1B689A4200D19FE0FB1D1A78544B5C
:100C00009200D258FB1D1978524B8900CB589A425A
:100C100000D992E0FB1D1B78181C012102F090FC0A
:100C20004D4B1B781A1C01231340002B07D04B4B54
:100C30001B685B0A5A024A4B1B689A4241D001204A
:100C400001F0B6F9454B1B685120191C00F0AAFDB4
:100C5000002001F067F9031CAA2B24D0FE2001F02C
:100C600061F9031CAA2B12D0FF20FFF7DFFC01F073
:100C7000BDF9FFF74FFD031C1A1C3B1C0F331A7004
:100C8000FB1D1B78181C002102F0A8FC16E0FB1DC0
:100C90001B78FA1D12783349895C08220A43D1B2C5
:100CA000304AD1540AE0FB1D1B78FA1D12782D49F9
:100CB000895C08220A43D1B22A4AD15400F02CFEA2
:100CC00023E0FB1D1A78224B9200D358DB05DB0D85
:100CD000BB60BB68FF2B08D8234B1A68BB68D218CF
:100CE0003B1C0F3312781A7009E0204B1A68BB685E
:100CF000013BFF3BD2183B1C0F3312781A70FB1DCF
:100D00001B78181C002102F069FCFB1D1A78104B9F
:100D10009200D258FB1D19780E4B8900CB589A428D
:100D20000BD1FB1D1A78FB1D1B780E49C95C802373
:100D30005B420B43D9B20B4B99543B1C0F331B78CE
:100D4000181CBD4604B080BD70020020D8000020F1
:100D50006002002034010020FC000020240100205B
:100D6000F800002080020020500100202001002017
:100D700080B584B000AF0A1CFB1D011C1970BB1D9F
:100D80001A703A1C0F3256235B421370BB1D1B783E
:100D9000022B00D1B7E0BB1D1B785E4AD35C1A1C46
:100DA0000F231340012B00D1ADE0BB1D1A785A4B25
:100DB0009200D258594B1B689A420BD0BB1D1A782F
:100DC000574B9200D258BB1D1978564B8900CB580F
:100DD0009A4209D9BB1D1B784E4AD35C1A1C0223C8
:100DE0001340002B00D18EE0BB1D1A784C4B9200B3
:100DF000D258BB1D19784B4B8900CB5801339A420E
:100E000000D980E0BB1D1A78474B9200D358002BC5
:100E100004D1BB1D1B78181C02F056F8BB1D1A78B4
:100E20003F4B9200D258BB1D19783E4B8900CB58DE
:100E30009A4213D1BB1D1B783A4A99008A58511C1B
:100E4000384A9B009950BB1D1B78BA1D1278314956
:100E5000895C10220A43D1B22E4AD154BB1D1B78A3
:100E6000181C002102F06CFB304B1A68304B1B68D9
:100E70009A421BD02F4B1B781A1C01231340DBB264
:100E8000002B0AD02A4B1B68181C01F0DFFC294BF1
:100E90001B78FE221340274A1370244B1B68181C32
:100EA00001F0D4FD214B1A68214B1A60BB1D1A7842
:100EB0001B4B9200D358DB05DB0DBB60BB68FF2BDF
:100EC00007D81D4B1A68BB68D318FA1D12781A7020
:100ED00008E01A4B1A68BB68013BFF3BD318FA1DA8
:100EE00012781A70134B1A7801231343DAB2114B9C
:100EF0001A70BB1D1B78181C012102F06FFB3B1CF4
:100F00000F3300221A703B1C0F331B78181CBD4690
:100F100004B080BD8802002070020020D8000020AC
:100F20006002002034010020400100202401002044
:100F3000F8000020FC0000205001002020010020CB
:100F400080B584B000AF78600A1CFB1C1A703A1C94
:100F50000F3256235B42137014E07B681A78FB1C37
:100F60001B78101C191CFFF703FF031C1A1C3B1CE9
:100F70000F331A707B6801337B603B1C0F331B7887
:100F8000AA2B04D07B681B78002BE6D100E0C0467A
:100F90003B1C0F331B78181CBD4604B080BDC046F7
:100FA00080B582B000AF021CFB1D1A70104B1B787D
:100FB0001A1C01231340DBB2002B07D00D4B1B681A
:100FC000181C01F043FC0A4B00221A70FB1D1B7811
:100FD000094AD35C1A1C10231340002B04D0FB1DBC
:100FE0001B78181C02F0FEF8BD4602B080BDC0465A
:100FF000FC000020F80000208802002080B584B0AA
:1010000000AF78607B68002B5FD0364B1B687A6836
:101010009A425AD87B680220191C01F0A3F9324B7E
:101020001B681B78002B4AD03B1C0F3300221A7020
:1010300015E02E4B1A683B1C0F331B781033D21867
:10104000294B19683B1C0F331B78CB181B78137086
:101050003B1C0F333A1C0F32127801321A703B1CC2
:101060000F331B78072BE4D9204B1B6818332E2233
:101070001A703B1C0F3308221A7015E01B4B1A68BC
:101080003B1C0F331B781133D218174B19683B1CCC
:101090000F331B78CB181B7813703B1C0F333A1C93
:1010A0000F32127801321A703B1C0F331B780A2B57
:1010B000E4D90E4B1B681C3300221A700AE00B4B5C
:1010C0001B68103300221A7004E0084B1B681033B1
:1010D00000221A70054B1B681033181CBD4604B063
:1010E00080BDC046CC00002050010020200100201F
:1010F00080B582B000AF02F0D1FB031C7B605F4B78
:1011000000221A705E4B181C002102F0ABFB00F0AD
:1011100029FCBB1C00221A700FE0FF20FFF786FAA3
:1011200000F064FFFFF7F6FA031C1A1C554B1A7007
:10113000BB1CBA1C127801321A70BB1C1B78092B1D
:10114000EBD900F017FC031C1A1CFB1C1A70BA1C0C
:1011500001235B421370FA1C56235B42137014E0A8
:1011600000F082FC00F068FC031C1A1CFB1C1A70C7
:10117000BB1CBA1C1278013A1A70BB1C1B78002BDE
:1011800003D1FA1C56235B421370FB1C1B78002B07
:1011900003D0BB1C1B78002BE2D1FB1C1B78AA2BB5
:1011A00029D1BA1C01235B421370FB1C00221A7068
:1011B0000CE0BB1CBA1C1278013A1A70BB1C1B78DD
:1011C000002B03D1FA1C56235B42137000F01CFC69
:1011D000031C002B03D0BB1C1B78002BE9D1FB1C8C
:1011E0001B78AA2B03D0284B01221A7006E0264B4D
:1011F00000221A7002E0244B02221A707B689BB214
:10120000181C002102F02EFB1C4B01221A7000F06A
:1012100043FC021C1D4B1A601B4B1B781A1C0F232E
:101220001340002B04D0194B1B68181C00F08EFCD7
:10123000154B1B781A1C0F231340002B06D0124BA2
:101240001B781A1CF0231340002B11D1104B0022E5
:101250001A70104B00221A600F4B00221A600F4BBD
:1012600000221A600E4B00221A600E4B02221A60F6
:10127000054B1B78181CBD4602B080BDFE00002047
:10128000DB0500007C020020FD000020F4000020AF
:101290007D0200205C0100206C020020540100202F
:1012A00084020020D000002080B586B000AF021C70
:1012B0003960FB1D1A703B1C0F3320221A703A4B09
:1012C0001B785B023868191C02F04CFC031C3B6164
:1012D000FB1D1B78012B60D8FB1D1A78334B920045
:1012E000D358002B52D0FB1D1A78314B9200D258A4
:1012F0003B689A4210D8FB1D1A782D4B9200D258A9
:101300003B689A4237D3FB1D1B782A4AD35C1A1CD0
:1013100004231340002B2ED0FB1D1A78FB1D1978D7
:10132000224B8900C958244B9200D15000237B6185
:1013300007E0FB1D1B78181C00F070FE7B69013371
:101340007B617A693B699A42F3D3FB1D1B783A684B
:10135000520AD1B23A69D2B2134800784243D2B2AB
:101360008A1AD1B2154AD154FB1D1A78144B920037
:101370003968D1500AE0FB1D1B78FA1D127811491B
:10138000895C04220A43D1B20E4AD154FB1D1A785B
:101390003B1C0F330B498A5C1A703B1C0F331B78C4
:1013A000181CBD4606B080BD7D0200204001002013
:1013B000340100208802002070020020300100204B
:1013C000600200208002002080B500AF044B0220A4
:1013D000191C00F0C7FF031C181CBD4680BDC04689
:1013E000FEFF000080B584B000AF021CFB1D1A7028
:1013F0000023FB60FB1D1B78012B05D8FB1D1A7811
:10140000044B9200D358FB60FB68181CBD4604B027
:1014100080BDC0463401002080B582B000AF021C00
:10142000FB1D1A70FB1D1B78012B04D8FB1D1B78BC
:10143000024A0021D154BD4602B080BD8002002086
:1014400080B584B000AF021CFB1D1A703A1C0F322D
:1014500080235B421370FB1D1B78012B08D8FB1DFA
:101460001B78074AD25C3B1C0F337F218A431A70DA
:101470003B1C0F331B78181CBD4604B080BDC04612
:101480008002002080B584B000AF78603A1C0E3234
:1014900056235B4213707A68164B101C191CFFF719
:1014A000EBF9031C1A1C3B1C0F331A703B1C0F3347
:1014B0001B78012B17D83B1C0F331B78181CFFF728
:1014C000ABFF3B1C0F331B78181C012101F0CCFB38
:1014D000031C1A1C3B1C0E331A703B1C0F331B7869
:1014E000181CFFF759F93B1C0E331B78181CBD461E
:1014F00004B080BDF43D000080B588B000AF7860D6
:1015000039603B1C1A3300221A703B1C193300222D
:101510001A7012E03B1C19331B783A1C19321178EF
:101520003A688A1811783A1C0C32D1543B1C193392
:101530003A1C1932127801321A703B1C19331A788E
:101540003B68D3181B78002BE4D13B1C19331B7864
:101550003A1C0C320021D1543B1C0C33181C01F0F6
:1015600099FE031C1A1C3B1C1A331A703B1C1A33BD
:101570001B78002B62D13A68344B101C191CFFF702
:101580007BF9031C1A1C3B1C1B331A703B1C1B33BE
:101590001B78022B47D17A682C4B101C191CFFF7C3
:1015A0006BF9031C1A1C3B1C1B331A703B1C1B33AE
:1015B0001B78022B31D03B1C1B331B78181C01F00D
:1015C00081FD031CFB613B1C193300221A7012E0E1
:1015D0003B1C19331A78FB69D3183A1C193212785C
:1015E000391C0C318A5C1A703B1C19333A1C1932B5
:1015F000127801321A703B1C19331B780A2BE7D979
:101600003B1C1B331B78181C01F080FD3B1C1B335B
:101610001B78181CFFF7C0F810E03A1C1A3256234A
:101620005B4213700AE03B1C1B331B78181CFFF74E
:10163000B3F83A1C1A3256235B4213703B1C1A3320
:101640001B78181CBD4608B080BDC046F43D0000A4
:1016500080B584B000AF786039603B1C0D33002248
:101660001A707A684C4B101C191CFFF705F9031C03
:101670001A1C3B1C0E331A703B1C0E331B78012BBB
:1016800000D97CE03A68454B101C191CFFF7F4F8B0
:10169000031C1A1C3B1C0F331A703B1C0F331B78A6
:1016A000012B5AD83B1C0E331B78181CFFF7B4FED5
:1016B0003B1C0F331B78181C01F006FC39E03B1C67
:1016C0000E331B78181C01F085F9031C1A1C3B1CF7
:1016D0000D331A703B1C0F331B78181C01F080F877
:1016E000031C1A1C3B1C0D331A703B1C0F331A7859
:1016F0003B1C0F3319782A4B8900CB58802080007F
:101700001918274B9200D1503B1C0E331B78181C24
:1017100000F0B4FD3B1C0E331B78181CFFF790FE45
:10172000031C002B05D13B1C0F331B78181C00F049
:10173000A5FD3B1C0E331B78181CFFF781FE031C14
:10174000002BBCD03B1C0E331A783B1C0F331B788C
:10175000101C191C01F0CCFE04E03A1C0D3256237B
:101760005B4213703B1C0E331B78181CFFF714F8F8
:101770003B1C0F331B78181CFFF70EF804E03A1CD3
:101780000D3256235B4213703B1C0D331B78181C23
:10179000BD4604B080BDC046F43D0000F83D0000E9
:1017A0003401002080B582B000AF021C3960FB1DFF
:1017B0001A70FF20FEF73AFF00F018FCFEF7AAFFB0
:1017C000031C1A1C324B1A70FF20FEF72FFF00F08B
:1017D0000DFCFEF79FFF031C1A1C2D4B1A700120F5
:1017E000FEF70AFF00F0AEF8FB1D1B78181CFEF791
:1017F0001DFF00F0FBFBFEF78DFF031C1A1C244BA2
:101800001A703B681B0EDBB2181CFEF70FFF00F0CE
:10181000EDFBFEF77FFF031C1A1C1D4B1A703B6883
:101820001B0CDBB2181CFEF701FF00F0DFFBFEF71C
:1018300071FF031C1A1C164B1A703B681B0ADBB2A3
:10184000181CFEF7F3FE00F0D1FBFEF763FF031C4C
:101850001A1C0F4B1A703B68DBB2181CFEF7E6FE31
:1018600000F0C4FBFEF756FF031C1A1C084B1A704D
:10187000FF20FEF7DBFE00F0B9FBFEF74BFF031C79
:101880001A1C034B1A7000F05DF8BD4602B080BD13
:101890007C02002080B582B000AF3B1D00221A7090
:1018A000FF20FEF7C3FE00F0A1FBFEF733FF031C91
:1018B0001A1C184B1A70FEF72DFF031C1A1C7B1DF7
:1018C0001A70FF20FEF7B2FE00F090FBFEF722FF39
:1018D000031C1A1C3B1D1A70FEF71CFF031C1A1C6C
:1018E000BB1D1A70FF20FEF7A1FE00F07FFBFEF784
:1018F00011FF031C1A1C074B1A70FEF70BFF031C89
:101900001A1CFB1D1A703B1D1B78181CBD4602B02B
:1019100080BDC0467C02002080B500AFFF20FEF7EE
:1019200085FE00F063FBFEF7F5FE031C1A1C044B5A
:101930001A700020FEF760FE00F004F8BD4680BD7E
:101940007C02002080B582B000AF054B1B78002BD5
:1019500002D1642002F06CF8BD4602B080BDC046E2
:10196000FE00002080B500AFC82002F061F8BD463F
:1019700080BDC04680B582B000AFFB1C00221A704B
:1019800000237B600DE0FF20FEF750FE00F02EFBF1
:10199000FEF7C0FE031C1A1C194B1A707B6801333A
:1019A0007B607B68012BEED9FFF7DCFF0120FEF79F
:1019B00023FEFFF7C7FF00237B6010E07B68114A1E
:1019C000D35C181CFEF732FE00F010FBFEF7A2FEFF
:1019D000031C1A1C0A4B1A707B6801337B607B68FE
:1019E000052BEBD9FFF756FF031C1A1CFB1C1A70C2
:1019F000FFF792FFFB1C1B78181CBD4602B080BD90
:101A00007C020020CC3D000080B582B000AFFB1D01
:101A100000221A7041200021FFF7C4FEFFF73AFFB1
:101A2000031C1A1CFB1D1A70FFF776FFFB1D1B78A9
:101A3000181CBD4602B080BD80B582B000AFFB1D52
:101A400000221A7069200021FFF7ACFEFFF722FF89
:101A5000031C1A1CFB1D1A70FFF75EFFFB1D1B7891
:101A6000181CBD4602B080BD80B582B000AFFB1D22
:101A700000221A7077200021FFF794FEFFF70AFF7B
:101A8000031C1A1CFB1D1A70FFF746FFFB1D1B7879
:101A9000181CBD4602B080BD80B582B000AF0023E7
:101AA0003B60BB1D00221A70402000F081FADF234A
:101AB0005B005120191CFFF775FE002000F032FA80
:101AC000031CAA2B33D0FE2000F02CFA031CAA2BF7
:101AD00028D01C4B1B68181C2021FEF7D5FD1A4B83
:101AE0001B68181C2021FEF7CFFDFB1D0B221A706E
:101AF00010E03B681B023B60124B1A68FB1D1B7811
:101B0000D3181B783A68D3183B60FB1DFA1D127876
:101B1000013A1A70FB1D1B78072BEAD83B685B0261
:101B20003B6008E0BA1D56235B42137003E0BA1D08
:101B300056235B421370FFF7EFFE3B68181CBD464F
:101B400002B080BD500100202001002080B586B089
:101B500000AF78603B1C0B3300221A7000237B61BE
:101B600080239B00181C00F023FA7B68002B05D112
:101B70003A1C0B3256235B421370CAE17B6851203A
:101B8000191CFFF70FFE002000F0CCF9031CAA2B54
:101B900000D195E1FE2000F0C5F9031CAA2B00D16D
:101BA00088E1CA4B1B68181CFEF794FDC84B1B68E4
:101BB000181CFEF78FFDC54B1B680D331A78C54BFB
:101BC0001A70C24B1B680F331B78FB60FB681B024B
:101BD000FB60BE4B1B680E331B78FA68D318FB60A2
:101BE000FB685A027B68D218BB4B1A60B74B1B6864
:101BF00036331B78462B4ED1B44B1B6837331B78DA
:101C0000412B48D1B14B1B6838331B78542B42D140
:101C1000AE4B1B6839331B78312B1AD1AB4B1B6889
:101C20003A331B78322B14D1AC4B1B781A1CF0239F
:101C30001340102B0CD0A94B1B780F221340A74A3E
:101C40001370A64B1A7810231343DAB2A34B1A7001
:101C500020E09E4B1B6839331B78312B13D19B4BF3
:101C60001B683A331B78362B0DD19C4B1B780F2207
:101C700013409A4A1370994B1A7840231343DAB2EF
:101C8000964B1A7006E0954B1B780F221340934A2F
:101C9000137047E046E08D4B1B6852331B78462B90
:101CA0002DD18A4B1B6853331B78412B27D1874B8F
:101CB0001B6854331B78542B21D1844B1B6855333C
:101CC0001B78332B29D1814B1B6856331B78322B61
:101CD00025D1824B1B781A1CF0231340B02B20D047
:101CE0007E4B1B780F2213407C4A13707B4B1A7873
:101CF00050235B421343DAB2784B1A7012E0774BF1
:101D00001B781A1CF0231340002B0BD0734B1B784D
:101D10000F221340714A137004E0C04602E0C0462F
:101D200000E0C0466E4B6F4A1A606F4B02221A7079
:101D30006A4B1B781A1CF0231340B02B08D1684B58
:101D40006A4A1A60684B04221A70694B694A1A6021
:101D5000624B1B781A1CF0231340102B0DD05F4BE5
:101D60001B781A1CF0231340402B06D05B4B1B78CA
:101D70001A1CF0231340602B43D1544B1B681733BC
:101D80001B78FB60FB681B02FB60504B1B68163323
:101D90001B78FA68D318FB604C4B1B6810331B7818
:101DA000012B06D9FB685A024B4B1B68D218524BC9
:101DB0001A60464B1B6810331B78FA6853435A026B
:101DC000454B1B68D2184D4B1A604D4B00221A60D0
:101DD0004C4B00229A603D4B1B6812331B78FB6012
:101DE000FB681B02FB60394B1B6811331B78FA68D8
:101DF000D318FB60FB685A01404B1B68D218424B5A
:101E00001A60364B1B781A1CF0231340B02B00D0FD
:101E10007EE027233B610DE07B691B027B612B4B3E
:101E20001A683B69D3181B787A69D3187B613B69C0
:101E3000013B3B613B69232BEED8244B1B681033DD
:101E40001B78012B06D97B695A02234B1B68D218D9
:101E5000294B1A601D4B1B6810331B787A6953435A
:101E60005A021D4B1B68D218274B1A602F233B6167
:101E70000DE07B691B027B61144B1A683B69D31828
:101E80001B787A69D3187B613B69013B3B613B69F5
:101E90002B2BEED81A4B7A691A607B691B4A9B1868
:101EA0005A02194B1B68D218144B1A60154B7A69E9
:101EB0009A602EE03A1C0B3256235B42137028E0E6
:101EC0003A1C0B3256235B42137022E05001002073
:101ED000200100207D0200205C010020FD00002088
:101EE000D8000020FFFF0000D4000020FFFFFF0FFC
:101EF000CC000020FEFF00006C02002054010020F6
:101F0000580100204001002084020020FEFF7F00D5
:101F1000C046FFF701FD3B1C0B331B78181CBD4668
:101F200006B080BD80B584B000AF021CFB1D1A70E6
:101F30003B1C0D3300221A703A1C0E3201235B4207
:101F400013703B1C0F33FA1D127801321A701CE01B
:101F5000FF20FEF76BFB00F049F8FEF7DBFB031CEC
:101F60001A1C3B1C0F331A703B1C0E333A1C0E32EA
:101F70001278013A1A703B1C0E331B78002B04D1E7
:101F80003A1C0D3256235B421370FA1D3B1C0F3373
:101F900012781B789A4204D03B1C0E331B78002B1E
:101FA000D6D13B1C0D331B78181CBD4604B080BD38
:101FB00080B584B000AF78603B1C0F3300221A70EC
:101FC0007B685020191CFFF7EDFBFFF763FC031C37
:101FD0001A1C3B1C0F331A70FFF79EFC3B1C0F337F
:101FE0001B78181CBD4604B080BDC04680B582B0C9
:101FF00000AFFEF79DFB031C1A1CFB1D1A7005E0C9
:10200000FEF796FB031C1A1CFB1D1A70FB1D1B78A8
:10201000002BF5D0BD4602B080BDC04690B585B05E
:1020200000AF021CFB1D1A70FB1D1A78264B920094
:10203000D358FB60FB1D1A78234B9200D258234BD8
:102040001B689A423DD0FB1D1C78FB1D1A781E4B65
:102050009200D358181C00F03FF8011C1A4BA20044
:10206000D150FB1D1A78184B9200D258174B1B68A1
:102070009A4221D1FB1D1B78154AD35C1A1C0123FF
:102080001340002B18D1FB1D1A780F4B9200F968F2
:10209000D150FB1D1B78181C00F016FFFB1D1C788F
:1020A000FB1D1A78084B9200D358181C00F014F846
:1020B000011C054BA200D150FB1D1B78054A0021D5
:1020C000D154BD4605B090BD70020020D80000205C
:1020D000880200203001002080B586B000AF786013
:1020E0003B1C113300221A703B1C133301221A705F
:1020F0007B68002B06D13B1C133302221A70454B20
:102100001B687B60444B1B78181CFFF751FF76E07F
:10211000414B1B78022B06D17B685A003F4B1B6852
:10212000D3187B6105E07B689A003C4B1B68D31891
:102130007B617B695120191CFFF734FB0020FFF7FE
:10214000F1FE031CAA2B39D0FE20FFF7EBFE031C87
:10215000AA2B2DD0304B1B783A1C0832101C191CAE
:10216000FEF792FA0023FB603B1C123301221A7027
:1021700016E0FB681B02FB60274B1B781A1C3B1CFC
:1021800012331B78D31A3A1C0832D35CFA68D3187E
:10219000FB603B1C12333A1C1232127801321A7067
:1021A0001D4B1B783A1C123212789A42E1D90AE090
:1021B0003A1C113256235B42137004E03A1C113270
:1021C00056235B421370FFF7A7FB3B1C13331B78AE
:1021D000022B10D1FB68002B09D17B68FB600D4BF3
:1021E0007A681A603B1C133300221A7007E07B6880
:1021F00001337B6003E03B1C133300221A703B1C4D
:1022000013331B78002B83D1FB68181CBD4606B026
:1022100080BDC046D0000020D40000205C0100201A
:1022200080B584B000AF021CFB1D1A700023FB6058
:10223000FB1D1A780E4B9200D358002B13D0FB1DB8
:102240001A780C4B9200D358BB6007E0BB68FB6068
:10225000FB68181CFFF740FF031CBB60064B1B68A4
:10226000BA689A42F2D1FB68181CBD4604B080BD22
:102270004001002070020020D800002080B584B00A
:1022800000AF021CFB1D1A703B1C0F3300221A709A
:10229000FB1D1B782D4AD35C1A1C2D4B1B78013B70
:1022A0009A4208DAFB1D1B78284AD25C0132D1B26F
:1022B000264AD15424E0FB1D1B78181CFFF7AEFE04
:1022C000FB1D1A78234B9200D258234B1B689A426D
:1022D00005D0FB1D1B781D4A0021D15410E03A1C8B
:1022E0000F3256235B421370FB1D1A78FB1D1B78BF
:1022F0001A49C95C80235B420B43D9B2174B9954EE
:102300003B1C0F331B78002B18D1FB1D1A78FB1DCB
:102310001978134B8900CB58802080001918104B76
:102320009200D150FB1D1A78FB1D19780C4B8900C7
:10233000CB585B0A59020A4B9200D1503B1C0F3319
:102340001B78181CBD4604B080BDC046300100207B
:102350007D02002070020020D800002080020020B2
:102360006002002090B587B000AF021C3960FB1DF1
:102370001A703B1C093300221A703B1C0A330022DE
:102380001A700023FB6000233B613B1C17330022C3
:102390001A70864B9B68002B00D120E1834B9A6812
:1023A000834B9A60834B00229A70834B00229A6081
:1023B00015E17E4B9B68002B07D1FB685A017F4BD0
:1023C0001B68D2187E4B1A6003E00220012101F045
:1023D000B7F82020FFF7ECFD794B1B685120191C42
:1023E000FFF7E0F90020FFF79DFD031CAA2B15D095
:1023F000FE20FFF797FD031CAA2B06D0714B1B682C
:10240000181C2021FEF740F910E03B1C17333A1C42
:102410001732117808220A431A7007E03B1C173361
:102420003A1C1732117808220A431A70FFF774FA1F
:102430003B1C17331B78002B00D0ABE0614B1B68B3
:102440001B78002B07D13A685F4B9A4203D03B1CA4
:102450000A3301221A70554B9B68002B0BD1FB6885
:102460000133FB60FA68594B9A422FD93B1C0A335F
:1024700001221A702BE0504B9B681A1C20324E4BE5
:102480009A604D4B9A68514B9A4220D94A4B002290
:102490009A60484B9B780133DAB2464B9A70454BB1
:1024A0009A784B4B1B789A4211D3424B00229A7078
:1024B0000220FFF7B3FD3E4B9A68464B1B689A42D9
:1024C00005D13B1C0A3301221A7000E0C0463D4B87
:1024D0001B681B78402B47D93A4B1B681B785A2B3B
:1024E00042D8384B1B680B331B781A1C1823134037
:1024F000002B39D13B6901333B613B68002B2AD16A
:102500003B1C0B3300221A7006E03B1C0B333A1CB9
:102510000B32127801321A702A4B1A683B1C0B33AB
:102520001B78D3181A782C4B19683B1C0B331B787B
:10253000CB181B789A4204D13B1C0B331B780A2B17
:10254000E3D93B1C0B331B780A2B28D93B1C0933DE
:1025500001221A7043E03A693B689A4221D13B1C40
:10256000093301221A703AE03A68174B9A421AD19D
:10257000144B1B681B78E52B04D0124B1B681B788F
:10258000002B2BD13B6901333B613B1C09330122FA
:102590001A7024E03B1C0A3301221A701FE0C04667
:1025A0001DE0C0461BE0C04619E0C04640010020C7
:1025B0007002002030010020600200205401002041
:1025C0002401002050010020FFFF0000FF01000057
:1025D0007D020020D800002020010020C0463B1CC6
:1025E00009331B78002B05D13B1C0A331B78002BC9
:1025F00000D1DEE6FB1D1B78012B00D9C9E0FB1DD5
:102600001B78FA1D12786C49895C3A1C17321278D3
:102610000A43D1B2684AD1543B1C09331B78012BC1
:1026200000D0AAE0654B1B781A1CF0231340B02B96
:102630002ED1FB1D1A78624B1B6815331B78191CB1
:10264000604B9200D150FB1D1A78FB1D19785D4B31
:102650008900CB5819025B4B9200D150FB1D1A78B0
:10266000FB1D1978574B8900C958554B1B6814330B
:102670001B78C918534B9200D150FB1D1A78FB1DD3
:102680001978504B8900CB5819024E4B9200D1500B
:10269000FB1D1A78FB1D19784A4B8900C958484B15
:1026A0001B681B331B78C918464B9200D150FB1D89
:1026B0001A78FB1D1978434B8900CB581902414BFE
:1026C0009200D150FB1D1A78FB1D19783D4B8900F3
:1026D000C9583B4B1B681A331B78C918394B9200F9
:1026E000D150FB1D1A78384B1968384B9200D150E5
:1026F000FB1D1A78FB1D1978324B8900C958344BE1
:102700009200D1503B1C0B3300221A7027E0FB1DB6
:102710001A78FB1D19782F4B8900CB5819022D4BC5
:102720009200D150FB1D1A78FB1D1978294B8900A6
:10273000C958234B18683B1C0B331B781F24A44635
:102740006446E31AC3181B78C918224B9200D15073
:102750003B1C0B333A1C0B32127801321A703B1CB3
:102760000B331B78032BD2D9FB1D1A78144B1B6833
:102770000B331978184B995414E0FB1D1B78FA1D84
:1027800012780D49895C02220A43D1B20A4AD15417
:1027900008E03B1C09331B78002B03D1084B1B6856
:1027A00000221A700D4B00221A603B69DBB2181C24
:1027B000BD4607B090BDC04680020020FD0000204D
:1027C0005001002070020020240100202801002078
:1027D00040010020340100204C010020F8000020BE
:1027E00080B584B000AF021CFB1D1A703B1C0F3378
:1027F00000221A70FB1D1A78114B9200D258114B0F
:102800001B689A4210D0FB1D1B78181C002100F099
:1028100097FE0D4B1B68181C00F018F8031C1A1CBF
:102820003B1C0F331A7004E03A1C0F3256235B42F4
:1028300013703B1C0F331B78181CBD4604B080BDC1
:1028400070020020D80000202401002080B584B050
:1028500000AF78603B1C0B3300221A7080239B0072
:10286000181CFFF7A5FB7B685820191CFEF79AFF80
:10287000FF20FDF7DBFEFFF7B9FBFDF74BFF031C65
:102880001A1C3B1C0B331A700020FFF74BFB031C78
:10289000AA2B00D17CE0FE20FDF7C8FEFFF7A6FBC7
:1028A000FDF738FF031C1A1C454B1A70454B1B687B
:1028B000181CFDF7C9FE444B1B68181CFDF7C4FE2D
:1028C000FF20FDF7B3FEFFF791FBFDF723FF031C8D
:1028D0001A1C3B4B1A70FF20FDF7A8FEFFF786FB82
:1028E000FDF718FF031C1A1C354B1A70FF20FDF76B
:1028F0009DFEFFF77BFBFDF70DFF031C1A1C3B1C25
:102900000B331A703B1C0B331A780F231340052B23
:1029100038D1FF20FDF78AFEFFF768FBFDF7FAFECE
:10292000031C1A1C3B1C0B331A703B1C0B3300227C
:102930001A7080231B02FB600EE0FF20FDF776FE7D
:10294000FFF754FBFDF7E6FE031C1A1C3B1C0B3380
:102950001A70FB68013BFB603B1C0B331B78002BA0
:1029600002D1FB68002BE8D1FB68002B05D13A1C93
:102970000B3256235B4213700FE03B1C0B330022DB
:102980001A700AE03A1C0B3256235B42137004E0C3
:102990003A1C0B3256235B421370FEF7BDFF0B4B04
:1029A0007A681A600A4B1B78FE221340084A13709B
:1029B0003B1C0B331B78181CBD4604B080BDC046C1
:1029C0007C0200205001002020010020F80000209F
:1029D000FC00002080B584B000AF021CFB1D1A7003
:1029E0003B1C0F3300221A7080239B00181CFFF73A
:1029F000DFFAFB1D1A78124B9200D258114B1B685C
:102A00009A4210D0FB1D1B78181C002100F098FD85
:102A10000D4B1B68181C00F019F8031C1A1C3B1CFA
:102A20000F331A7004E03A1C0F3256235B421370C6
:102A30003B1C0F331B78181CBD4604B080BDC0463C
:102A400070020020D80000202401002080B584B04E
:102A500000AF78603B1C0F3300221A702A4B1B78A2
:102A60001A1C01231340DBB2002B0FD0274B1B682D
:102A70007A689A420AD0254B1B68181CFFF7E6FEBD
:102A8000214B1B78FE2213401F4A13701F4B1B68FB
:102A90007A689A4230D080239B00181CFFF788FA8E
:102AA0007B685120191CFEF77DFE0020FFF73AFAE3
:102AB000031CAA2B16D0FE20FFF734FA031CAA2B06
:102AC0000AD0134B1B68181CFDF704FE114B1B6842
:102AD000181CFDF7FFFD0AE03A1C0F3256235B423B
:102AE000137004E03A1C0F3256235B421370FEF75A
:102AF00013FF064B7A681A603B1C0F331B78181CB7
:102B0000BD4604B080BDC046FC000020F800002097
:102B1000500100202001002080B586B000AF021CCB
:102B20003960FB1D1A703B1C133300221A7012E02F
:102B30003B1C13331B783A1C133211783A688A18FD
:102B400011783A1C0832D1543B1C13333A1C13320F
:102B5000127801321A703B1C13331B780A2BE7D909
:102B6000FB1D1A78384B101C191CFFF7FBFBFB1DD3
:102B70001B78181C00F0A6FA031C7B613B1C133366
:102B800000221A7012E03B1C13331A787B69D318A9
:102B90003A1C13321278391C08318A5C1A703B1CBB
:102BA00013333A1C1332127801321A703B1C133360
:102BB0001B780A2BE7D93B1C13330B221A7011E048
:102BC0003B1C13331A787B69D3183A1C13321278E2
:102BD0001E498A5C1A703B1C13333A1C133212785C
:102BE00001321A703B1C13331B781F2BE8D9FB1DD5
:102BF0001B78181C00F08AFAFB1D1B78144A002170
:102C0000D154FB1D1A78134B92000021D150FB1DAB
:102C10001A78114B92000021D150FB1D1A780F4BEE
:102C200092000021D150FB1D1A780D4B920000211B
:102C3000D150FB1D1B780B4A0021D154FB1D1B7882
:102C4000181CBD4606B080BDFFFF0000D43D00004B
:102C50004C010020400100207002002034010020BF
:102C6000600200203001002080B586B000AF0A1C51
:102C7000FB1D011C1970BB1D1A703A1C173256231C
:102C80005B421370FB1D1A78464B9200D358002B01
:102C900007D0FB1D1A78434B9200D358181C00F044
:102CA0008FF8FB1D1A78404B9200D3585B0A5B02E9
:102CB000181CFFF7CBFEFB1D1A783B4B9200D35834
:102CC000DB05DB0DFB60FB68181C00F0D7F9031C6B
:102CD0003B61BB1D1B78002B41D13B1C0B331A22DF
:102CE0001A700DE03B1C0B331A783B69D318002295
:102CF0001A703B1C0B333A1C0B32127801321A70DB
:102D00003B1C0B331B781F2BECD9284B1B78042B57
:102D100007D13B69143300221A703B691533002236
:102D20001A70FB1D1A781F4B92000021D150FB1D19
:102D30001A781F4B92000021D150FB1D1A781D4BB1
:102D400092000021D150FB1D1A781B4B92000021EC
:102D5000D150FB1D1B78194A0021D15403E03A6978
:102D60001B235B421370FB1D1A780F4B9200D35844
:102D70005B0A5B02181CFFF769FDBB1D1B78012B6A
:102D800009D1FB1D1B78181CFDF706FD031C1A1C3E
:102D90003B1C17331A703B1C17331B78181CBD469D
:102DA00006B080BD4001002028010020D400002092
:102DB0007002002034010020600200203001002059
:102DC00080B586B000AF78600023BB607B68181CBC
:102DD00000F0B2F967E0394B1B787A685343DB05A2
:102DE000DB0DFB60FB68181C00F048F9031C7B61DD
:102DF0000023BB603B1C133301221A7023E0BB6825
:102E00001B02BB602D4B1B781A1C3B1C13331B7819
:102E1000D31A1A1C7B69D3181B78BA68D318BB6005
:102E2000264B1B781A1C3B1C13331B78D31A1A1C15
:102E30007B69D31800221A703B1C13333A1C1332DF
:102E4000127801321A701D4B1B783A1C133212781B
:102E50009A42D4D91A4B1B68BA689A420CD0174BC5
:102E60001B787A685A43154B1B78B9684B4353401B
:102E70005B0A5B02002B0CD07B68181C00F082F907
:102E80000F4B1B68BA689A4203D0BB68181C00F04D
:102E900053F90C4B1B687A689A4202D2094B7A6844
:102EA0001A60BB687B60064B1B68BA689A4292D175
:102EB0000023181CBD4606B080BDC046D4000020CB
:102EC000D8000020D000002090B587B000AF021CD1
:102ED000FB1D1A700020FFF7FFF8031CBB60BB68E6
:102EE0005A1C604B1A60FB1D1B78181CFFF798F9E1
:102EF000031CFB60FB68002B32D1FB1D1A785A4B78
:102F00009200B968D150FB1D1A78584B9200B968ED
:102F1000D150FB1D1B78181C00F0D4F8031C7B61FA
:102F20007B691A33BA68D2B21A707B691B33BA68EC
:102F3000120AD2B21A704E4B1B78042B0BD17B694C
:102F40001433BA68120CD2B21A707B691533BA689E
:102F5000120ED2B21A70FB1D1B78181C00F0D6F8A6
:102F6000BB68181C00F0E8F8031C7B613B1C1333A2
:102F700000221A7016E03B1C13331A787B69D218B2
:102F80003C4B19683B1C13331B78DB00081CD840F2
:102F9000031CDBB213703B1C13333A1C1332127840
:102FA00001321A70324B1B783A1C133212789A4253
:102FB000E1D3FB68002B04D1BB68181C00F0E2F8D9
:102FC0004AE0FB68181C00F0FDF8041CBB68181CE4
:102FD00000F0F8F8031C9C420AD0BB68181C00F0F3
:102FE000D1F8FB68181C00F0A7F8031C7B610AE00D
:102FF0001F4B1B78FA685343DB05DB0D181C00F0F0
:103000003DF8031C7B613B1C133300221A7015E052
:103010003B1C13331A787B69D3183A1C133212788D
:10302000D200B968081CD040021CD2B21A703B1CF6
:1030300013333A1C1332127801321A700C4B1B787E
:103040003A1C133212789A42E2D3FB68181C00F043
:1030500099F8094B00221A600023181CBD4607B0DE
:1030600090BDC046D000002040010020700200202A
:10307000D4000020D8000020F800002080B584B0E3
:1030800000AF78607B68DB05DB0D7B607A688023AE
:103090005B001340002B05D1084B1A687B68D318DE
:1030A000FB6006E0064B1A687B68013BFF3BD318C8
:1030B000FB60FB68181CBD4604B080BD50010020B9
:1030C0002001002080B584B000AF021CFB1D1A70E7
:1030D000FB1D1A780C4B9200D3585B0A5B02181C3C
:1030E000FFF7B4FCFB1D1A78074B9200D358DB05A1
:1030F000DB0DFB60FB68181CFFF7C0FF031C181CEE
:10310000BD4604B080BDC0462801002080B582B015
:1031100000AF021CFB1D1A70FB1D1A78054B9200B4
:10312000D3585B0A5B02181CFFF790FBBD4602B048
:1031300080BDC0462801002080B584B000AF786013
:103140007B68181C00F03EF8031CFB600B4B1A68F0
:10315000FB68D318181CFFF779FC094B1B787A68B9
:103160005343DB05DB0DBB60BB68181CFFF786FF14
:10317000031C181CBD4604B080BDC0465C01002085
:10318000D400002080B584B000AF78607B68181C44
:1031900000F018F8031CFB60084B1A68FB68D31892
:1031A000181CFFF753FB064B1A68FB68D318181C52
:1031B000FFF74CFBBD4604B080BDC0465C0100205B
:1031C0006C02002080B582B000AF7860044B1B78A1
:1031D0007A6853435B0A5B02181CBD4602B080BD8F
:1031E000D400002080B586B000AF021CFB1D1A7011
:1031F000FB1D1A78244B9200D3587B61FB1D1B7872
:10320000181CFFF75FFF031C3B613B690B33FA1D82
:1032100012781E498A5C1A703B1C0F3300221A7008
:103220001BE03B1C0F331B781A1C1C323B69D31864
:10323000FA1D1178144A890089583A1C0F32127805
:10324000D200081CD040021CD2B21A703B1C0F33B3
:103250003A1C0F32127801321A703B1C0F331B7864
:10326000032BDED9FB1D1B78181CFFF74FFFFB1D3E
:103270001A78FB1D1B780649CB5CEF210B400449F3
:103280008B54BD4606B080BD340100204C010020A7
:103290008802002080B584B000AF78603B1C0A3300
:1032A00000221A703B1C0C3300221A703B1C0D3399
:1032B00000221A703DE03B1C0A331A787B68D21852
:1032C0003B1C0B3312781A703B1C0B331B78602BA2
:1032D00012D93B1C0B331B787A2B0DD83B1C0A33BD
:1032E0001A787B68D3183A1C0A3211787A688A18DF
:1032F0001278203AD2B21A703B1C0B331B782E2B5B
:1033000010D13B1C0D331B78002B06D13B1C0D3319
:103310003A1C0A3212781A7004E03A1C0C32562316
:103320005B4213703B1C0A333A1C0A32127801329A
:103330001A703B1C0A331A787B68D3181B78002B51
:10334000B9D13B1C0D331B78002B12D03B1C0E3324
:103350003A1C0D3212781A703B1C0D331B78DB437C
:10336000D9B23B1C0F333A1C0A3212788A181A70F1
:1033700009E03B1C0E333A1C0A3212781A703B1CCF
:103380000F3300221A707B681B78402B03D97B68AF
:103390001B785A2B04D93A1C0C3256235B4213700B
:1033A0003B1C0E331B78082B04D83B1C0F331B78B7
:1033B000032B04D93A1C0C3256235B4213703B1C7E
:1033C0000C331B78AA2B00D18BE03B1C0F331B78EE
:1033D000002B4CD03B1C0D331B78072B25D83B1CF6
:1033E0000A333A1C0F3212781A7018E03B1C0A3369
:1033F0001B78DA1D7B68D3183A1C0D3211783A1C01
:103400000A3212788A18111C7A688A1812781A708F
:103410003B1C0A333A1C0A321278013A1A703B1CE0
:103420000A331B78002BE1D121E03B1C0A33082230
:103430001A7013E03B1C0A331A787B68D3183A1CC5
:103440000A321278511C7A688A1812781A703B1C5A
:103450000A333A1C0A32127801321A703B1C0A33C2
:103460001A783B1C0F331B7807339A42E2DD3B1C72
:103470000A330A221A700DE03B1C0A331A787B6863
:10348000D31820221A703B1C0A333A1C0A321278D5
:10349000013A1A703B1C0A331A783B1C0F331B7815
:1034A00007339A42E8DC3B1C0A333A1C0E3212788E
:1034B0001A700DE03B1C0A331A787B68D31820225F
:1034C0001A703B1C0A333A1C0A32127801321A7005
:1034D0003B1C0A331B78072BECD97B680B3300228B
:1034E0001A703B1C0C331B78181CBD4604B080BD01
:1034F00080B582B000AF0A1CFB1D011C1970BB1DFA
:103500001A70BB1D1A78FB1D19780B4B8900C9581E
:10351000094B9200D150BB1D1B78FA1D1278074948
:10352000895C064AD154BB1D1B78181CFFF75AFE54
:10353000BD4602B080BDC046340100204C010020D1
:1035400080B582B000AF0A1CFB1D011C1970BB1DA9
:103550001A70FB1D1A781B4B9200D3589A1E1A4BF7
:103560001A601A4B1B781A1C174B1B685A43164BD0
:103570001A60FB1D1B78164AD35C1A1C124B1B6881
:10358000D218114B1A60104B1B685A020E4B1A606E
:103590000D4B1A680F4B1B68D2180B4B1A60BB1DE2
:1035A0001B78012B0BD1FB1D1A780B4B9200D358C3
:1035B000DB05DA0D044B1B68D218034B1A60BD46BD
:1035C00002B080BD70020020240100207D02002096
:1035D00030010020840200206002002090B583B0FA
:1035E00000AF0A1CFB1D011C1970BB1D1A70FB1DCE
:1035F0001B78254A99008A58511C234A9B009950F0
:10360000FB1D1A78204B9200D358002B38D0FB1D9D
:103610001A781D4B9200D358DB05DB0D002B2FD100
:10362000FB1D1B78194AD35C1A1C194B1B78013BF4
:103630009A421DD1FB1D1B78144A0021D154BB1D99
:103640001B78002B0ED1FB1D1C78FB1D1A78114B2B
:103650009200D358181CFEF73FFD011C0D4BA20031
:10366000D1500DE0FB1D1B78181CFEF7D7FC07E0BE
:10367000FB1D1B78054AD25C0132D1B2034AD154FA
:10368000BD4603B090BDC04660020020300100205E
:103690007D0200207002002080B500AF00F096F897
:1036A000BD4680BD80B500AF044A044B1968802335
:1036B0001B060B431360BD4680BDC046000007409B
:1036C00080B500AF064B1B78002B04D1044B0122C0
:1036D0001A70FFF7E1FFFFF7E5FFBD4680BDC0466A
:1036E0000001002080B500AF054B054A126852006A
:1036F00052081A6000F080F900F004F8BD4680BD61
:103700000000074080B500AFBD4680BD80B582B0E7
:1037100000AF00237B60044B1B687B607B68181C38
:10372000BD4602B080BDC0464003074080B582B0B0
:1037300000AF054B1A680F2313407B607B68181C91
:10374000BD4602B080BDC0460803074080B500AF4B
:10375000074A074B196880235B020B431360044B35
:10376000034A1168034A0A401A60BD4680BDC0463C
:1037700004030740FFFFFEFF80B582B000AF786012
:10378000054B1A680F231340082BF9D0034B7A68B6
:103790001A60BD4602B080BD0802074040020740E3
:1037A00080B500AF074A074B196880235B020B43C3
:1037B0001360044B034A1168034A0A401A60BD466D
:1037C00080BDC04604020740FFFFFEFF80B500AF8A
:1037D000144B154A1A60154B154A1A60154B164AB8
:1037E0001A60164B07221A60154B134A1A60154BC4
:1037F00000221A60144B00221A60144B00221A6037
:10380000134B00221A60134B00221A60124B002245
:103810001A60124B00221A60114B181C00F092F82B
:10382000BD4680BD000007400500000120000740A4
:1038300011000080000307400701008004030740D7
:103840000002074004020740880E0740C80E0740E8
:10385000480F0740080F0740C80F0740880F074070
:10386000493B000080B584B000AF0A1CBB1D011CA1
:1038700019807B1D1A70084B1B681B0C1B04BB6056
:10388000BB1D1A88BB681343FB60034BFA681A60C0
:10389000BD4604B080BDC0460000024080B500AF08
:1038A000024B1B689BB2181CBD4680BD0000024045
:1038B00080B584B000AF021CFB1D1A700E4B1B6854
:1038C000DAB23B1C0F3340218A431A70FB1D1B7870
:1038D0009B01DBB2402213403A1C0F32391C0F31DE
:1038E00009780B431370044B3A1C0F3212781A609C
:1038F000BD4604B080BDC0460001044080B584B020
:1039000000AF021CFB1D1A700D4B1B68DAB23B1C8A
:103910000F3301218A431A70FB1D1B7801221340CB
:103920003A1C0F32391C0F3109780B431370044BCA
:103930003A1C0F3212781A60BD4604B080BDC046F2
:103940000000044080B582B000AF786000F04AF813
:103950007B68181C00F008F8032000F011F800F054
:1039600037F8BD4602B080BD80B582B000AF786048
:10397000024B7A68DA66BD4602B080BD00000020C6
:1039800090B585B000AF021CFB1D1A701E23FB60B2
:1039900000F047F8031C1A1C3B1C0B331A700B4B2E
:1039A0000A4A126892009108FA1D1078FA68041CFD
:1039B0009440221C0A431A603B1C0B331B78181CD2
:1039C00000F033F8BD4605B090BDC04608E400E005
:1039D00080B500AF024A80231B011360BD4680BD45
:1039E00000E100E080B500AF024A80231B011360B4
:1039F000BD4680BD80E100E080B500AF024A802373
:103A00001B011360BD4680BD80E200E000000000A5
:103A10000230800804D0C0460138FDD1C046C046FF
:103A20007047EFF3108072B6704780F310887047CC
:103A300080B582B000AF786008E00C4B1B68181CA2
:103A4000FFF7E6FF7B680A4A9B187B607A68802351
:103A50001B029A42F1D8074B1B687A685343181C23
:103A6000FFF7D6FFBD4602B080BDC046E80000208B
:103A70000080FFFFE000002080B582B000AF021C94
:103A8000BB1D1A80BB1D1B88044A12785343181CA7
:103A9000FFF7BEFFBD4602B080BDC046E400002077
:103AA00080B582B000AF786039607A683B68101CDE
:103AB00000211A1C00F0A6F8BD4602B080BDC04629
:103AC00080B586B000AF786039600023FB600023CA
:103AD000BB602EE0BB689A007B68D3181B683B6113
:103AE0003B1C17333A691A703B69FF2293433B61D1
:103AF00017E0FB685A003B68D3181B781A1C3B6917
:103B0000D318FA6851003A688A1852781A70FB681C
:103B10000133FB603B1C17333A1C17321278013A11
:103B20001A703B1C17331B78002BE2D1BB680133A2
:103B3000BB60BB68002BCDD0BD4606B080BDC04683
:103B400080B500AFBD4680BD80B500AF044B1B689B
:103B5000002B02D0024B1B689847BD4680BDC04673
:103B600004010020002934D00123002210B488422F
:103B70002CD301242407A14204D2814202D209019C
:103B80001B01F8E7E400A14204D2814202D24900BD
:103B90005B00F8E7884201D3401A1A434C08A04260
:103BA00002D3001B5C0822438C08A04202D3001BF6
:103BB0009C082243CC08A04202D3001BDC0822430D
:103BC000002803D01B0901D00909E3E7101C10BC31
:103BD0007047002801D00020C04307B4024802A16A
:103BE0004018029003BDC046190000000029F0D023
:103BF00003B5FFF7B9FF0EBC4243891A1847C04608
:103C00007047C04630B5C9B2032A08D8002A05D08B
:103C1000031C1218197001339342FBD130BD841874
:103C2000031C032201E0197001331342FBD10A0285
:103C3000521815045219E51A11E01A605A609A6078
:103C4000DA601A615A619A61DA611A625A629A629A
:103C5000DA621A635A639A63DA63403D40333F2D58
:103C6000EBDCE51A05E01A605A609A60DA60103DF4
:103C700010330F2DF7DCE51A01E004C3043D032DDA
:103C8000FBDC01E0197001339C42FBD8C6E7C0465B
:103C900008B500F01DF80A4B002B01D1002000E010
:103CA0001868084B002B01D1002100E019680022A0
:103CB000FCF73CFB044B002B01D000E000BFFEE70B
:103CC000000000000000000000000000FEE700000F
:103CD00070B50D4D0D4E761BB610002E05D000248C
:103CE00008CD01349847A642FAD800F093F8084D61
:103CF000084E761BB610002E05D0002408CD0134E6
:103D00009847A642FAD870BD203E0000203E000031
:083D1000203E0000283E0000E7
:103D180066696C65312E74787400000077000000C5
:103D280054686973206973206D7920317374206633
:103D3800696C652E0000000066696C655F746D70C3
:103D48002E74787400000000546869732069732029
:103D5800612074656D702066696C652E0000000036
:103D680066696C65322E7478740000005468697353
:103D7800206973206D7920326E642066696C652E27
:103D880000000000610000004920617070656E64E9
:103D98006564207468697320746578742E00000067
:103DA8007200000066696C655F72656E2E747874C7
:103DB8000000000066696C655F6370792E74787422
:103DC80000000000400000000095000046494C45F6
:103DD8004E414D4545585420184FAC4E363136317A
:103DE8000000867B303100000000000072000000F7
:103DF8007700000000300F40000400400F4000042E
:103E080002600F400201110104000000F8B5C0462D
:103E1800F8BC08BC9E467047110300005905000015
:103E2800F8B5C046F8BC08BC9E467047FD020000C5
:103E380000000000503E0000C800002028000000DC
:083E4800A002000000000000D0
:103E5000000000000002000002000000020000005C
:103E6000FFFF0000006CDC0280BB0000300000009F
:083E70000000C05DC0F1FF0F6E
:0400000300000549AB
:00000001FF
